:100000000C9481000C94A9000C94A9000C94A900F4
:100010000C94A9000C94A9000C94A9000C94A900BC
:100020000C94A9000C94A9000C94A9000C940F0442
:100030000C94A9000C94A9000C94A9000C94A9009C
:100040000C94AA070C94A9000C9461050C94AF05BC
:100050000C94A9000C94A9000C94A9000C94A9007C
:100060000C94A9000C94A9000000000024002700B3
:100070002A0000000000250028002B0000000000DE
:1000800023002600290004040404040404040202DA
:100090000202020203030303030301020408102007
:1000A0004080010204081020010204081020000012
:1000B0000007000201000003040600000000000029
:1000C0000000494E46494E4954594E414ECDCCCC84
:1000D0003D0AD7233C17B7D13877CC2B329595E61C
:1000E000241FB14F0A000020410000C84200401CFC
:1000F0004620BCBE4CCA1B0E5AAEC59D74005902A8
:100100001B0711241FBECFEFD4E0DEBFCDBF11E02F
:10011000A0E0B1E0E6EFF4E102C005900D92A2315B
:10012000B107D9F711E0A2E1B1E001C01D92A43FEF
:10013000B107E1F710E0C2E0D1E004C02297FE0170
:100140000E94330ACE3FD107C9F70E949B070C9447
:10015000790A0C940000662777270C94E100009739
:1001600031F4DA018D919C91009709F40EC0DC0105
:10017000FB013D912191222319F03217C9F3FACFE7
:10018000332331F4DA011D921C92882799270895B0
:100190001197AF93BF93FB013D912191321771F4F9
:1001A000332321F488279927119702C01E921196B4
:1001B000FA01A193B0839F918F910895222369F74B
:1001C000EACFA0E0B0E0E7EEF0E00C94480AEC01E2
:1001D0005B016115710519F0FB0191838083F99032
:1001E0008F2D90E00E94370A892BC9F7FDE2FF1698
:1001F00021F4F990EE24E39405C02BE2F21609F401
:10020000F990EE248E0101501040C80162EC70E0BC
:1002100043E050E00E944102892B01F58E010E5F00
:100220001F4FC80165EC70E045E050E00E944102BC
:10023000892B19F48E01095F1F4FA114B10419F025
:10024000F50111830083E0FC04C070E090E080E8D9
:1002500014C070E090E080E86FEF08C1C8016AEC5C
:1002600070E043E050E00E944102892B69F4A11440
:10027000B10429F470E090E080EC6FE7F7C02296BB
:10028000F501D183C083F6CF8824992440E050E063
:1002900060E070E0EF2DE053EA30A0F5F2E0EF2AE5
:1002A0008E2D90E09C0128703070E2FE06C0232B5A
:1002B00079F50894811C911C2BC0232B19F008940C
:1002C00081089108DB01CA0112E0880F991FAA1F5B
:1002D000BB1F1A95D1F7480F591F6A1F7B1F440F88
:1002E000551F661F771F4E0F511D611D711D483927
:1002F00029E9520729E9620729E1720748F084E0F9
:10030000E82A06C0EE3F31F4E3FC39C098E0E92A60
:10031000F990C0CFE53311F0E53189F529912D32FF
:1003200019F4E0E1EE2A05C02B3219F081E090E0EB
:1003300003C0299182E090E0E22FE053EA3018F008
:10034000C81BD90B1CC020E030E0FCE020383F0780
:100350005CF4C901880F991F880F991F280F391F56
:10036000220F331F2E0F311DE991E053EA3068F35D
:10037000E4FE03C0309521953F4F820E931ECE2C94
:10038000DD24E1FE07C0A114B10421F02197F5019D
:10039000D183C083CB01BA010E94C7087B018C01C5
:1003A000F3E0CF22DD2423E0C216D10421F417FBB1
:1003B000109517F9109557016801C801B70120E0A1
:1003C00030E040E050E00E949208882309F44AC0DF
:1003D00097FE0DC021EEE22E20E0F22E9094819443
:1003E00091089394C0E2D0E000E010E012C099EFD1
:1003F000E92E90E0F92EF6CFF70125913591459140
:100400005491C601B5010E9479095B016C018C1AF7
:100410009D0A8C169D0684F7D595C7950F5F1F4FD3
:100420000630110529F08CEF9FEFE80EF91EF1CF91
:10043000C501D6017C018D018C2D880F8D2D881F63
:100440008F3F51F0C601B50120E030E040E050E0C0
:100450000E949208882331F482E290E09093F301A5
:100460008093F2017E2D9F2D802F612F272F392F12
:10047000482F562FB901CA01CDB7DEB7ECE00C9476
:10048000640AFB01DC014150504088F08D918134B9
:100490001CF08B350CF4805E659161341CF06B357B
:1004A0000CF4605E861B611171F3990B0895881B33
:1004B000FCCF82E191E00E9433030895AF92BF9296
:1004C000CF92DF92EF92FF920F931F937B018C01EB
:1004D0002AE037ED43EA5BE30E947909A80197011E
:1004E0000E9479095B016C01C801B70120EA3AE179
:1004F0004FEE50E40E9479099B01AC01C601B501A1
:100500000E942E082CEE31EB42EC53E40E942E08A0
:100510000E9496089B01AC0182E191E0B9010E9422
:100520004D031F910F91FF90EF90DF90CF90BF9000
:10053000AF900895CF92DF92EF92FF920F931F93A7
:10054000DF93CF93CDB7DEB7CA50D1400FB6F89442
:10055000DEBF0FBECDBFCE010B969A8389836C019F
:100560007E010894E11CF11C49C087EC91E00E94D7
:10057000A206282F8A30A9F5DA82C98210921801C2
:10058000109217011AC000911701109118010E94D2
:10059000AB00000F111F000F111F0E0D1F1DF801E2
:1005A00062837383848395838091170190911801EE
:1005B0000196909318018093170189819A8160E0D8
:1005C00071E0A7010E94AF000097E9F610921601B2
:1005D000109215016B817C818D819E810E945E024B
:1005E0000DC08091150190911601F601E80FF91FD9
:1005F00020830196909316018093150187EC91E07A
:100600000E947106181619060CF4AFCFC65FDE4FB4
:100610000FB6F894DEBF0FBECDBFCF91DF911F9113
:100620000F91FF90EF90DF90CF9008950F931F935D
:1006300087EC91E040E052EC61E070E00E94EA0556
:100640008DE060E00E940C0502E111E0C80163E06A
:1006500070E00E940804C80160E272E00E944D034D
:100660001F910F910895FC01809119018C3090F435
:1006700080838F5F80931901815090E0FC01EE0F21
:10068000FF1FE80FF91FE65EFE4F88EB9BE09283A9
:10069000818308958FEF80830895FC0120812C30A1
:1006A000B8F58181992787FD909548E850E0481B6F
:1006B000590B440F551F440F551F6417750784F0DD
:1006C0008281992787FD909548E552E0481B590B98
:1006D000440F551F440F551F641775070CF4AB01E9
:1006E00042505040CA01AA2797FDA095BA2F880F03
:1006F000991FAA1FBB1F4FB7F89430E0F901EE0F06
:10070000FF1FE20FF31FE65EFE4F928381834FBF10
:100710000895CF92DF92EF92FF921F93CF93DF93D2
:10072000EC01162F7A01690188818C3008F064C0D1
:10073000862F61E00E94CD04888190E0FC01EE0FDD
:10074000FF1FE80FF91FE65EFE4F1F738081807C5C
:10075000812B808380E292E08E199F0964E070E033
:100760000E94E809698380E699E08C199D0964E09C
:1007700070E00E94E8096A83A8818A2F6CE00E94D9
:10078000DC09682F70E0AB01440F551F460F571F5F
:10079000440F551F440F551F20E030E0C901840F5E
:1007A000951FFC01EE0FFF1FE80FF91FE65EFE4FDD
:1007B000808186FD15C02F5F3F4F2C30310571F7CA
:1007C00024C01092800082E0809381001092850006
:1007D00010928400B19A80916F00826080936F00C4
:1007E0008A2F90E0FC01EE0FFF1FE80FF91FE65E75
:1007F000FE4F8081806480838881DF91CF911F913B
:10080000FF90EF90DF90CF900895672BD1F2E8CF63
:1008100040E252E020E639E00E94890308951F92E9
:100820000F920FB60F9211242F933F934F935F9324
:100830006F937F938F939F93AF93BF93EF93FF93A8
:1008400080913E0187FF05C01092850010928400C0
:100850002BC020913E01332727FD3095809119014F
:1008600090E02817390704F580913E01992787FD0C
:100870009095FC01EE0FFF1FE80FF91FE65EFE4F9B
:10088000808186FF11C080913E01992787FD909558
:10089000FC01EE0FFF1FE80FF91FE65EFE4F80819F
:1008A0008F7360E00E940C0580913E018F5F809302
:1008B0003E0120913E01332727FD3095809119019B
:1008C00090E0281739070CF04EC080913E018C3023
:1008D0000CF049C0209184003091850080913E0148
:1008E000992787FD9095FC01EE0FFF1FE80FF91F78
:1008F000E65EFE4F81819281280F391F3093890077
:100900002093880080913E01992787FD9095FC01F6
:10091000EE0FFF1FE80FF91FE65EFE4F808186FF96
:100920002BC080913E01992787FD9095FC01EE0F29
:10093000FF1FE80FF91FE65EFE4F80818F7361E0B5
:100940000E940C0519C080E49CE905C080918400D8
:1009500090918500049690938900809388008FEF92
:1009600080933E0109C08091840090918500049697
:1009700080549C4940F3EACFFF91EF91BF91AF9132
:100980009F918F917F916F915F914F913F912F91A7
:100990000F900FBE0F901F901895CF93DF93482FA5
:1009A00050E0CA0186569F4FFC0134914A575F4F71
:1009B000FA018491882369F190E0880F991FFC0166
:1009C000E859FF4FA591B491FC01EE58FF4FC59136
:1009D000D491662351F42FB7F8948C91932F90956E
:1009E00089238C93888189230BC0623061F42FB7EF
:1009F000F8948C91932F909589238C938881832BE5
:100A000088832FBF06C09FB7F8948C91832B8C935B
:100A10009FBFDF91CF910895482F50E0CA018255C2
:100A20009F4FFC012491CA0186569F4FFC0194916F
:100A30004A575F4FFA013491332309F440C022230F
:100A400051F1233071F0243028F42130A1F022300C
:100A500011F514C02630B1F02730C1F02430D9F49C
:100A600004C0809180008F7703C0809180008F7DCB
:100A70008093800010C084B58F7702C084B58F7DCD
:100A800084BD09C08091B0008F7703C08091B00011
:100A90008F7D8093B000E32FF0E0EE0FFF1FEE5844
:100AA000FF4FA591B4912FB7F894662321F48C9150
:100AB0009095892302C08C91892B8C932FBF089528
:100AC00008951F920F920FB60F9211242F933F9308
:100AD0004F938F939F93EF93FF938091C00082FD7C
:100AE0001DC04091C60020917F01309180012F5F91
:100AF0003F4F2F73307080918101909182012817B0
:100B0000390771F0E0917F01F0918001E15CFE4FC7
:100B100040833093800120937F0102C08091C60002
:100B2000FF91EF919F918F914F913F912F910F9056
:100B30000FBE0F901F901895E091D301F091D40152
:100B4000E05CFF4F8191919120813181821B930B59
:100B50008F739070892B11F00E94600508951F9289
:100B60000F920FB60F9211242F933F938F939F9361
:100B7000EF93FF932091C3013091C4018091C5018F
:100B80009091C6012817390731F48091C1008F7DFB
:100B90008093C10014C0E091C501F091C601ED57EA
:100BA000FE4F20818091C5019091C60101968F73FF
:100BB00090709093C6018093C5012093C600FF9169
:100BC000EF919F918F913F912F910F900FBE0F90BA
:100BD0001F901895AF92BF92DF92EF92FF920F9302
:100BE0001F93CF93DF93EC017A018B01DD2440301A
:100BF00081EE580780E0680780E0780711F0DD2477
:100C0000D39491E0A92EB12CEC89FD89DD2069F007
:100C1000C50108A002C0880F991F0A94E2F78083DB
:100C200060E079E08DE390E005C0108260E874E850
:100C30008EE190E0A80197010E94FB09215030400D
:100C400040405040569547953795279580E1203094
:100C5000380720F0DD2011F0DD24D6CFE889F989AE
:100C60003083EA89FB89208319A2EE89FF894081BC
:100C700021E030E0C9010C8C02C0880F991F0A9452
:100C8000E2F7482B4083EE89FF894081C9010D8C32
:100C900002C0880F991F0A94E2F7482B4083EE891F
:100CA000FF894081C9010E8C02C0880F991F0A94E8
:100CB000E2F7482B4083EE89FF8980810F8C02C0C8
:100CC000220F331F0A94E2F7209528232083DF9117
:100CD000CF911F910F91FF90EF90DF90BF90AF9059
:100CE0000895DC011C96ED91FC911D97E05CFF4F8F
:100CF0002191319180819181281B390B2F733070A4
:100D0000C9010895DC011C96ED91FC911D97E05CF2
:100D1000FF4F20813181E054F040DF01AE5BBF4FD7
:100D20008D919C9111972817390719F42FEF3FEFF8
:100D300007C08D919C91E80FF91F8081282F30E02A
:100D4000C9010895DC011C96ED91FC911D97E05CB2
:100D5000FF4F20813181E054F040DF01AE5BBF4F97
:100D60008D919C9111972817390719F42FEF3FEFB8
:100D700010C08D919C911197E80FF91F20818D91E2
:100D80009C91119701968F73907011969C938E93FE
:100D900030E0C9010895DC0191968C9191978823E8
:100DA00039F05496ED91FC915597808186FFF9CFEB
:100DB00091961C920895CF93DF93EC01EE85FF8509
:100DC000E05CFF4F20813181E054F0402F5F3F4FC6
:100DD0002F733070DF01AE5BBF4F8D919C911197E7
:100DE00028173907D1F3E05CFF4F80819181E054EF
:100DF000F040E80FF91F6083EE85FF85E05CFF4F50
:100E000031832083EE89FF89208181E090E00F8C7F
:100E100002C0880F991F0A94E2F7282B208381E0F3
:100E200089A3EC89FD8980818064808381E090E0E2
:100E3000DF91CF9108951092CA011092C90188EEF6
:100E400093E0A0E0B0E08093CB019093CC01A0931D
:100E5000CD01B093CE0186E091E09093C8018093DC
:100E6000C7018FE391E09093D4018093D30183E88D
:100E700091E09093D6018093D50185EC90E090931A
:100E8000D8018093D70184EC90E09093DA018093AD
:100E9000D90180EC90E09093DC018093DB0181EC40
:100EA00090E09093DE018093DD0182EC90E09093DE
:100EB000E0018093DF0186EC90E09093E201809363
:100EC000E10184E08093E30183E08093E40187E023
:100ED0008093E50185E08093E60181E08093E7015E
:100EE0000895CF92DF92EF92FF920F931F93CF93CB
:100EF000DF937C016B018A01C0E0D0E00FC0D60116
:100F00006D916D01D701ED91FC910190F081E02D83
:100F1000C7010995C80FD91F0150104001151105CF
:100F200071F7CE01DF91CF911F910F91FF90EF905C
:100F3000DF90CF900895CF93DF930E94F2070E9435
:100F40001603CCE9D5E00E949A022097E1F30E94B3
:100F50009C05F9CF1F920F920FB60F9211242F9379
:100F60003F938F939F93AF93BF938091ED019091A7
:100F7000EE01A091EF01B091F0013091F1010196E5
:100F8000A11DB11D232F2D5F2D3720F02D57019668
:100F9000A11DB11D2093F1018093ED019093EE010D
:100FA000A093EF01B093F0018091E9019091EA01E3
:100FB000A091EB01B091EC010196A11DB11D8093B0
:100FC000E9019093EA01A093EB01B093EC01BF918A
:100FD000AF919F918F913F912F910F900FBE0F90E6
:100FE0001F901895789484B5826084BD84B5816023
:100FF00084BD85B5826085BD85B5816085BDEEE621
:10100000F0E0808181608083E1E8F0E010828081FF
:1010100082608083808181608083E0E8F0E080816D
:1010200081608083E1EBF0E0808184608083E0EB8D
:10103000F0E0808181608083EAE7F0E08081846075
:1010400080838081826080838081816080838081D1
:10105000806880831092C10008955058BB27AA274A
:101060000ED00DC1FED030F003D120F031F49F3FFF
:1010700011F41EF4F3C00EF4E095E7FBE9C0E92F8C
:101080000FD180F3BA17620773078407950718F02A
:1010900071F49EF527C10EF4E0950B2EBA2FA02D0A
:1010A0000B01B90190010C01CA01A0011124FF2715
:1010B000591B99F0593F50F4503E68F11A16F04010
:1010C000A22F232F342F4427585FF3CF469537950F
:1010D0002795A795F0405395C9F77EF41F16BA0BD4
:1010E000620B730B840BBAF09150A1F0FF0FBB1F82
:1010F000661F771F881FC2F70EC0BA0F621F731FCB
:10110000841F48F4879577956795B795F7959E3F27
:1011100008F0B3CF9395880F08F09927EE0F9795B5
:101120008795089571D008F481E0089504D06894FB
:10113000B111D9C00895BCD088F09F5790F0B92F55
:101140009927B751A0F0D1F0660F771F881F991F1C
:101150001AF0BA95C9F712C0B13081F0C3D0B1E02E
:101160000895C0C0672F782F8827B85F39F0B93F3E
:10117000CCF3869577956795B395D9F73EF490951E
:101180008095709561957F4F8F4F9F4F0895E8949C
:1011900009C097FB3EF490958095709561957F4FBF
:1011A0008F4F9F4F9923A9F0F92F96E9BB2793956D
:1011B000F695879577956795B795F111F8CFFAF47D
:1011C000BB0F11F460FF1BC06F5F7F4F8F4F9F4FAE
:1011D00016C0882311F096E911C0772321F09EE80C
:1011E000872F762F05C0662371F096E8862F70E072
:1011F00060E02AF09A95660F771F881FDAF7880F4C
:101200009695879597F90895990F0008550FAA0BA1
:10121000E0E8FEEF16161706E807F907C0F0121609
:101220001306E407F50798F0621B730B840B950B0C
:1012300039F40A2661F0232B242B252B21F4089561
:101240000A2609F4A140A6958FEF811D811D0895FE
:1012500097F99F6780E870E060E008959FEF80EC69
:10126000089500240A94161617061806090608950C
:1012700000240A9412161306140605060895092E72
:101280000394000C11F4882352F0BB0F40F4BF2BE1
:1012900011F460FF04C06F5F7F4F8F4F9F4F089521
:1012A00057FD9058440F551F59F05F3F71F0479517
:1012B000880F97FB991F61F09F3F79F087950895FC
:1012C000121613061406551FF2CF4695F1DF08C01B
:1012D000161617061806991FF1CF86957105610538
:1012E00008940895E894BB2766277727CB0197F9E0
:1012F00008950BD0C4CFB5DF28F0BADF18F09523DE
:1013000009F0A6CFABCF1124EECFCADFA0F3959F93
:10131000D1F3950F50E0551F629FF001729FBB27DC
:10132000F00DB11D639FAA27F00DB11DAA1F649F88
:101330006627B00DA11D661F829F2227B00DA11D3B
:10134000621F739FB00DA11D621F839FA00D611DC1
:10135000221F749F3327A00D611D231F849F600DE2
:10136000211D822F762F6A2F11249F5750408AF01B
:10137000E1F088234AF0EE0FFF1FBB1F661F771FA7
:10138000881F91505040A9F79E3F510570F060CFE3
:10139000AACF5F3FECF3983EDCF38695779567958F
:1013A000B795F795E7959F5FC1F7FE2B880F911DC5
:1013B0009695879597F90895991B79E004C0991F30
:1013C000961708F0961B881F7A95C9F7809508959F
:1013D00097FB092E07260AD077FD04D02ED006D021
:1013E00000201AF4709561957F4F0895F6F7909557
:1013F00081959F4F0895A1E21A2EAA1BBB1BFD01E8
:101400000DC0AA1FBB1FEE1FFF1FA217B307E407E3
:10141000F50720F0A21BB30BE40BF50B661F771F3B
:10142000881F991F1A9469F760957095809590951B
:101430009B01AC01BD01CF010895AA1BBB1B51E16B
:1014400007C0AA1FBB1FA617B70710F0A61BB70B34
:10145000881F991F5A95A9F780959095BC01CD01D9
:101460000895EE0FFF1F0590F491E02D099491115E
:1014700006C0803219F089508550D0F70895992719
:10148000882708952F923F924F925F926F927F929A
:101490008F929F92AF92BF92CF92DF92EF92FF9284
:1014A0000F931F93CF93DF93CDB7DEB7CA1BDB0B30
:1014B0000FB6F894DEBF0FBECDBF09942A883988D5
:1014C00048885F846E847D848C849B84AA84B984DC
:1014D000C884DF80EE80FD800C811B81AA81B981E8
:1014E000CE0FD11D0FB6F894DEBF0FBECDBFED01FC
:0614F0000895F894FFCFFF
:1014F6003B0000000000DB0671077106A2068206AB
:02150600CB0612
:00000001FF
