:100000000C9493010C94BB010C94BB010C94BB01A8
:100010000C94BB010C94BB010C94BB010C94BB0170
:100020000C94BB010C94BB010C94C80E0C944F0FA4
:100030000C94BB010C94BB010C94BB010C94BB0150
:100040000C94BB010C9463070C94BB010C94BB0192
:100050000C94BB010C94BB010C94BB010C94580C88
:100060000C94BB010C94BB010C94BB010C94BB0120
:100070000C94BB010C94BB010C94BB010C94BB0110
:100080000C94BB010C94BB010C94BB010C94BB0100
:100090000C94BB010C94BB010C94BB010C94BB01F0
:1000A0000C94BB010C94BB010C94BB01000000003C
:1000B000240027002A002D00300000000000250049
:1000C00028002B002E003100000000002300260035
:1000D00029002C002F000404040404030405020278
:1000E00002020403020202020606060606060404D1
:1000F00002020204040802011040804010204080E7
:10010000408008020401804020100201108010206D
:1001100040400000000200080E0000030401000B34
:1001200000000000000000000000000000000000CF
:10013000070605040100080A0B0C0D09080B000254
:10014000020201000904000001020200000524006F
:100150001001052401010104240206052406000102
:100160000705810310004009040100020A00000095
:100170000705020240000007058302400000040357
:1001800009042203410072006400750069006E00DA
:100190006F0020004D006900630072006F002000B6
:1001A00020002000180341007200640075006900FF
:1001B0006E006F0020004C004C0043001201000252
:1001C00000000040412337800001010200011201BC
:1001D00000020200004041233780000101020001BB
:1001E00000C18081C105010902A1010901A10085A9
:1001F00001050919012903150025019503750181E0
:100200000295017505810305010930093109381589
:1002100081257F750895038106C0C005010906A1E7
:10022000018502050719E029E715002501750195EB
:10023000088102950175088103950675081500254A
:10024000650507190029658100C009040200010342
:100250000000000921010100012265000705840357
:1002600040000100000000000000002A2B280000D0
:10027000000000000000000000000000000000007E
:100280000000002C9EB4A0A1A2A434A6A7A5AE365F
:100290002D3738271E1F20212223242526B333B6CD
:1002A0002EB7B89F8485868788898A8B8C8D8E8FA0
:1002B000909192939495969798999A9B9C9D2F31A3
:1002C00030A3AD350405060708090A0B0C0D0E0F07
:1002D000101112131415161718191A1B1C1DAFB183
:1002E000B0B500494E46494E4954594E414ECDCCC9
:1002F000CC3D0AD7233C17B7D13877CC2B32959514
:10030000E6241FB14F0A000020410000C84200400F
:100310001C4620BCBE4CCA1B0E5AAEC59D746B0356
:100320008D0B020ED21011241FBECFEFDAE0DEBF1C
:10033000CDBF11E0A0E0B1E0E0E7F9E202C0059036
:100340000D92AC33B107D9F711E0ACE3B1E001C0D5
:100350001D92A43FB107E1F713E0C6E2D3E004C069
:100360002297FE010E947014CE31D107C9F70E9476
:100370002F0B0C94B6140C940000662777270C946E
:10038000F301009731F4DA018D919C91009709F403
:100390000EC0DC01FB013D912191222319F032179F
:1003A000C9F3FACF332331F4DA011D921C92882766
:1003B000992708951197AF93BF93FB013D91219128
:1003C000321771F4332321F488279927119702C03B
:1003D0001E921196FA01A193B0839F918F91089577
:1003E000222369F7EACFA0E0B0E0E9EFF1E00C9456
:1003F0008514EC015B016115710519F0FB01918316
:100400008083F9908F2D90E00E947414892BC9F796
:10041000FDE2FF1621F4F990EE24E39405C02BE2EF
:10042000F21609F4F990EE248E0101501040C80133
:1004300063EE72E043E050E00E945303892B01F524
:100440008E010E5F1F4FC80166EE72E045E050E07E
:100450000E945303892B19F48E01095F1F4FA114C9
:10046000B10419F0F50111830083E0FC04C070E0D1
:1004700090E080E814C070E090E080E86FEF08C181
:10048000C8016BEE72E043E050E00E945303892BF9
:1004900069F4A114B10429F470E090E080EC6FE7F6
:1004A000F7C02296F501D183C083F6CF8824992422
:1004B00040E050E060E070E0EF2DE053EA30A0F55E
:1004C000F2E0EF2A8E2D90E09C0128703070E2FE61
:1004D00006C0232B79F50894811C911C2BC0232B7B
:1004E00019F0089481089108DB01CA0112E0880F15
:1004F000991FAA1FBB1F1A95D1F7480F591F6A1FD2
:100500007B1F440F551F661F771F4E0F511D611D26
:10051000711D483929E9520729E9620729E1720763
:1005200048F084E0E82A06C0EE3F31F4E3FC39C02D
:1005300098E0E92AF990C0CFE53311F0E53189F56B
:1005400029912D3219F4E0E1EE2A05C02B3219F081
:1005500081E090E003C0299182E090E0E22FE05337
:10056000EA3018F0C81BD90B1CC020E030E0FCE0DA
:1005700020383F075CF4C901880F991F880F991F25
:10058000280F391F220F331F2E0F311DE991E05321
:10059000EA3068F3E4FE03C0309521953F4F820EA8
:1005A000931ECE2CDD24E1FE07C0A114B10421F07E
:1005B0002197F501D183C083CB01BA010E94DD12DE
:1005C0007B018C01F3E0CF22DD2423E0C216D104AD
:1005D00021F417FB109517F9109557016801C80110
:1005E000B70120E030E040E050E00E944012882354
:1005F00009F44AC097FE0DC022E0E22E23E0F22E5D
:100600009094819491089394C0E2D0E000E010E0CF
:1006100012C09AE1E92E93E0F92EF6CFF701259169
:10062000359145915491C601B5010E9493135B0128
:100630006C018C1A9D0A8C169D0684F7D595C7957A
:100640000F5F1F4F0630110529F08CEF9FEFE80E6A
:10065000F91EF1CFC501D6017C018D018C2D880FCB
:100660008D2D881F8F3F51F0C601B50120E030E08D
:1006700040E050E00E944012882331F482E290E092
:100680009093F3018093F2017E2D9F2D802F612F97
:10069000272F392F482F562FB901CA01CDB7DEB702
:1006A000ECE00C94A114FB01DC014150504088F0B7
:1006B0008D9181341CF08B350CF4805E6591613432
:1006C0001CF06B350CF4605E861B611171F3990BA5
:1006D0000895881BFCCF8CE391E00E946806089582
:1006E000EF92FF920F931F938CE391E00E94BE065E
:1006F00020914701309148014091490150914A01B0
:1007000079018A0115950795F794E7942E193F0909
:10071000400B510BAA2797FDA095BA2F280F391F20
:100720004A1F5B1F209347013093480140934901C2
:1007300050934A015595479537952795442737FD9E
:100740004095542FCA01B9010E94DF1229ED3EECF9
:1007500047EF5DE30E94931324EA30E744E252E45A
:100760000E94DB1160933F0170934001809341012F
:100770009093420181E00E94E10820914B01309169
:100780004C0140914D0150914E0179018A01A2E046
:1007900015950795F794E794AA95D1F72E193F0977
:1007A000400B510BAA2797FDA095BA2F280F391F90
:1007B0004A1F5B1F20934B0130934C0140934D0126
:1007C00050934E01F2E05595479537952795FA9548
:1007D000D1F7442737FD4095542FCA01B9010E9433
:1007E000DF1260934301709344018093450190931D
:1007F00046011F910F91FF90EF900895EF92FF92A5
:100800000F931F9305EC11E040913F01509140017F
:100810006091410170914201C80122E030E00E94E4
:10082000190B70E0E72E71E0F72EC801B7010E94A6
:10083000320A409143015091440160914501709109
:100840004601C80122E030E00E94190BC801B7013F
:100850000E941C0B1F910F91FF90EF900895AF9293
:10086000BF92CF92DF92EF92FF920F931F937B0183
:100870008C012AE037ED43EA5BE30E949313A80161
:1008800097010E9493135B016C01C801B70120EA34
:100890003AE14FEE50E40E9493139B01AC01C60174
:1008A000B5010E94DC112CEE31EB42EC53E40E94C6
:1008B000DC110E94AC129B01AC018CE391E0B90108
:1008C0000E9482061F910F91FF90EF90DF90CF90D2
:1008D000BF90AF9008952F923F924F925F926F9288
:1008E0007F928F929F92AF92BF92CF92DF92EF92C0
:1008F000FF920F931F93DF93CF93CDB7DEB72C9763
:100900000FB6F894DEBF0FBECDBF69877A878B879D
:100910009C87E0905301F090540100915501109193
:100920005601A80197010E944012882379F480E0C3
:1009300090E0A0E0B0E08D839E83AF83B8871C0178
:100940002D0189839A83AB83BC83D3C069857A8563
:100950008B859C85A80197010E94DB117B018C018E
:1009600020E030E040EC5FE30E9493131B012C0178
:10097000C801B701A20191010E9444129B01AC0180
:1009800060E070E080E89FE30E94DB116D837E836E
:100990008F839887C201B1012D813E814F81588597
:1009A0000E94441269837A838B839C83A2C0C40112
:1009B000B3012D813E814F8158850E944012181647
:1009C000DCF069817A818B819C8120E030E040E01D
:1009D0005FE30E949313A40193010E949313A40167
:1009E00093010E949313209153013091540140913F
:1009F00055015091560163C060E070E080E89FE3CC
:100A00002D813E814F8158850E94DB119B01AC01F5
:100A1000C401B3010E9440128823ECF469857A85F1
:100A20008B859C8520915301309154014091550153
:100A3000509156010E94DC11A20191010E94DB112C
:100A400020E030E040E05FE30E9493137B018C01E3
:100A5000C201B1012CC069817A818B819C8120E027
:100A600030E040E05FEB0E9493135B016C0169850D
:100A70007A858B859C85A60195010E94DC117B01FE
:100A80008C0169817A818B819C81A40193010E94F0
:100A900093139B01AC01C801B7010E94DC117B01DB
:100AA0008C01C601B501A40193010E949313A40116
:100AB00093010E9493139B01AC01C801B7010E94EE
:100AC000DC117B018C01C401B3012FE632E143E864
:100AD00059E30E94DC1160934F01709350018093A1
:100AE0005101909352010E947003B701C8010E9406
:100AF0002F0460904F0170905001809051019090B0
:100B00005201C401B30120E030E040E85FE30E94FD
:100B1000401218160CF04BCFC701D8018093530137
:100B200090935401A0935501B093560180E090E05A
:100B3000A0E0B0E080934F0190935001A093510149
:100B4000B09352012C960FB6F894DEBF0FBECDBF06
:100B5000CF91DF911F910F91FF90EF90DF90CF9099
:100B6000BF90AF909F908F907F906F905F904F90CD
:100B70003F902F900895CF92DF92EF92FF920F93C4
:100B80001F93DF93CF93CDB7DEB7CA50D1400FB6D6
:100B9000F894DEBF0FBECDBFCE010B969A8389833A
:100BA0006C017E010894E11CF11C4BC085EC91E0C6
:100BB0000E946A0B282F8A30B9F5DA82C982109216
:100BC0005A01109259011AC00091590110915A010D
:100BD0000E94BD01000F111F000F111F0E0D1F1DE0
:100BE000F801628373838483958380915901909186
:100BF0005A01019690935A018093590189819A81F3
:100C000060E071E0A7010E94C1010097E9F610922F
:100C10005801109257016B817C818D819E810E94C9
:100C20006B040E94FE030DC0809157019091580102
:100C3000F601E80FF91F20830196909358018093E5
:100C4000570185EC91E00E94430B181619060CF42D
:100C5000ADCFC65FDE4F0FB6F894DEBF0FBECDBF7F
:100C6000CF91DF911F910F91FF90EF90DF90CF9088
:100C700008950F931F9385EC91E060E072EC0E9461
:100C8000420B8DE060E00E94AE080CE311E0C80169
:100C900069E070E00E945C07C80160E272E00E94B7
:100CA000820680E090E0A0E0B0E080933F01909366
:100CB0004001A0934101B09342018093430190937E
:100CC0004401A0934501B09346011F910F910895EF
:100CD000FC0180915B018C3090F480838F5F809366
:100CE0005B01815090E0FC01EE0FFF1FE80FF91F40
:100CF000E45AFE4F88EB9BE09283818308958FEF47
:100D000080830895FC0120812C30B8F581819927DA
:100D100087FD909548E850E0481B590B440F551F3C
:100D2000440F551F6417750784F08281992787FD4A
:100D3000909548E552E0481B590B440F551F440F4E
:100D4000551F641775070CF4AB0142505040CA019F
:100D5000AA2797FDA095BA2F880F991FAA1FBB1F1E
:100D60004FB7F89430E0F901EE0FFF1FE20FF31FC9
:100D7000E45AFE4F928381834FBF0895FC01808126
:100D80008F3F19F420E030E016C090E0FC01EE0F38
:100D9000FF1FE80FF91FE45AFE4F2181328183E0E3
:100DA000220F331F8A95E1F7B4E036952795BA955F
:100DB000E1F72E5F3F4FC9010895CF92DF92EF9286
:100DC000FF921F93CF93DF93EC01162F7A016901F5
:100DD00088818C3008F064C0862F61E00E94210871
:100DE000888190E0FC01EE0FFF1FE80FF91FE45A25
:100DF000FE4F1F738081807C812B808380E292E094
:100E00008E199F0964E070E00E942514698380E6D2
:100E100099E08C199D0964E070E00E9425146A83B2
:100E2000A8818A2F6CE00E941914682F70E0AB0132
:100E3000440F551F460F571F440F551F440F551F92
:100E400020E030E0C901840F951FFC01EE0FFF1F69
:100E5000E80FF91FE45AFE4F808186FD15C02F5F11
:100E60003F4F2C30310571F724C01092800082E092
:100E7000809381001092850010928400B19A809135
:100E80006F00826080936F008A2F90E0FC01EE0F6C
:100E9000FF1FE80FF91FE45AFE4F808180648083B2
:100EA0008881DF91CF911F91FF90EF90DF90CF90DD
:100EB0000895672BD1F2E8CF40E252E020E639E016
:100EC0000E94DD0608951F920F920FB60F92112413
:100ED0002F933F934F935F936F937F938F939F9342
:100EE000AF93BF93EF93FF938091800187FF05C07D
:100EF00010928500109284002BC02091800133272E
:100F000027FD309580915B0190E02817390704F5A3
:100F100080918001992787FD9095FC01EE0FFF1FBE
:100F2000E80FF91FE45AFE4F808186FF11C08091BF
:100F30008001992787FD9095FC01EE0FFF1FE80FB8
:100F4000F91FE45AFE4F80818F7360E00E94AE0863
:100F5000809180018F5F80938001209180013327F1
:100F600027FD309580915B0190E0281739070CF040
:100F70004EC0809180018C300CF049C020918400DB
:100F80003091850080918001992787FD9095FC0123
:100F9000EE0FFF1FE80FF91FE45AFE4F8181928187
:100FA000280F391F30938900209388008091800199
:100FB000992787FD9095FC01EE0FFF1FE80FF91FA1
:100FC000E45AFE4F808186FF2BC0809180019927D3
:100FD00087FD9095FC01EE0FFF1FE80FF91FE45A03
:100FE000FE4F80818F7361E00E94AE0819C080E4DB
:100FF0009CE905C0809184009091850004969093AF
:101000008900809388008FEF8093800109C08091D0
:10101000840090918500049680549C4940F3EACF67
:10102000FF91EF91BF91AF919F918F917F916F91C0
:101030005F914F913F912F910F900FBE0F901F9096
:101040001895CF93DF93482F50E0CA018C509F4FE3
:10105000FC0134914A525F4FFA018491882369F16F
:1010600090E0880F991FFC01E455FF4FA591B491C2
:10107000FC01E654FF4FC591D491662351F42FB77C
:10108000F8948C91932F909589238C938881892350
:101090000BC0623061F42FB7F8948C91932F909528
:1010A00089238C938881832B88832FBF06C09FB7A9
:1010B000F8948C91832B8C939FBFDF91CF910895EF
:1010C000883071F1893068F4823031F1833020F456
:1010D000813009F042C01DC0833089F08430E9F5C9
:1010E00012C08B3059F18C3028F48930E9F08A3005
:1010F000A1F51EC08C3031F18E3079F529C0809178
:1011000080008F7703C0809180008F7D8093800066
:10111000089584B58F7702C084B58F7D84BD08950E
:10112000809190008F7707C0809190008F7D03C0E1
:1011300080919000877F8093900008958091C000F7
:101140008F7703C08091C0008F7D8093C000089589
:101150008091C200877F8093C2000895FF920F9311
:101160001F93F62E482F50E0CA018E5E9E4FFC0161
:101170002491CA018C509F4FFC0114914A525F4F39
:10118000FA0104910023C9F0222319F0822F0E9452
:101190006008E02FF0E0EE0FFF1FE654FF4FA5912F
:1011A000B4919FB7F894FF2021F48C91109581237E
:1011B00002C08C91812B8C939FBF1F910F91FF9048
:1011C0000895823108F08251E82FF0E0E05DFE4F93
:1011D000E49120917B008E2F86958695869590E0F0
:1011E0008170907035E0880F991F3A95E1F72F7D57
:1011F000282B20937B00E770809110018295880F47
:10120000880F807C8E2B80937C0080917A00806494
:1012100080937A0080917A0086FDFCCF209178003F
:1012200040917900942F80E030E0282B392BC901C0
:101230000895CF92DF92EF92FF920F931F93CF9377
:10124000DF937C016B018A01C0E0D0E00FC0D601C2
:101250006D916D01D701ED91FC910190F081E02D30
:10126000C7010995C80FD91F01501040011511057C
:1012700071F7CE01DF91CF911F910F91FF90EF9009
:10128000DF90CF900895EF92FF920F931F938C0100
:10129000DC01ED91FC910190F081E02D6DE009956C
:1012A0007C01D801ED91FC910190F081E02DC80105
:1012B0006AE009959C012E0D3F1DC9011F910F91F8
:1012C000FF90EF900895CF93DF93EC0161157105C6
:1012D00019F420E030E00FC0DB010D900020E9F7A9
:1012E0001197A61BB70BE881F9810280F381E02DED
:1012F000AD0109959C01C901DF91CF9108954F92ED
:101300005F927F928F929F92AF92BF92CF92DF9225
:10131000EF92FF920F931F93DF93CF93CDB7DEB77A
:10132000A1970FB6F894DEBF0FBECDBF2C01742E6F
:10133000CB01223008F42AE019A231E2C32ED12CCD
:10134000CC0EDD1E822E9924AA24BB24672D752F76
:10135000A50194010E94381479018A01C801B701DE
:10136000A50194010E94FA13472D461B0894C10859
:10137000D1084A3014F4405D01C0495CF601408355
:10138000E114F1040105110521F07E2C5F2DC80147
:10139000DDCFC201B6010E946309A1960FB6F89491
:1013A000DEBF0FBECDBFCF91DF911F910F91FF9098
:1013B000EF90DF90CF90BF90AF909F908F907F90F5
:1013C0005F904F900895DC012115310541F4ED91B6
:1013D000FC910190F081E02D642F099508950E9401
:1013E0007F090895CF92DF92EF92FF920F931F93A0
:1013F000CF93DF93EC016A017B012115310541F4A4
:10140000E881F9810190F081E02D642F09951FC0DA
:101410002A303105D1F477FF17C0E881F9810190B6
:10142000F081E02D6DE209958C0144275527BA0122
:101430004C195D096E097F09CE012AE00E947F09DF
:101440009801280F391F04C02AE00E947F099C01DF
:10145000C901DF91CF911F910F91FF90EF90DF9025
:10146000CF9008950E94630908957F928F929F9272
:10147000AF92BF92CF92DF92EF92FF920F931F93A2
:10148000CF93DF934C017A018B01722ECB01BA010D
:10149000A80197010E94F613882321F0C40162E09D
:1014A00071E021C0C0E0D0E057016801E894D7F8AE
:1014B000C601B5012FEF3FEF4FE75FE70E94F6133C
:1014C000882351F4C601B5012FEF3FEF4FE75FE7E7
:1014D0000E944012181614F0C1E0D0E0219739F0B4
:1014E000C40166E071E00E946309EC0193C0C80189
:1014F000B7012FEF3FEF4FE75FE40E948F131816FD
:1015000054F0C801B7012FEF3FEF4FE75FEC0E94A7
:101510004012882324F4C4016AE071E0E4CFC801DA
:10152000B70120E030E040E050E00E94401287FD2B
:1015300003C0C0E0D0E00EC0D401ED91FC91019059
:10154000F081E02DC4016DE20995EC0117FB1095C7
:1015500017F9109520E030E040E05FE3DD240BC098
:10156000CA01B90120E030E040E251E40E94441297
:101570009B01AC01D394D71498F3C801B7010E9422
:10158000DC115B016C010E94B1127B018C01C40172
:10159000B801A7012AE030E00E94E309C80FD91F73
:1015A000772039F0C4016EE071E00E946309C80F32
:1015B000D91FC801B7010E94DD129B01AC01C60111
:1015C000B5010E94DB1124C020E030E040E251E48C
:1015D0000E9493137B018C010E94AC125B016C0191
:1015E000CC24B7FCC094DC2CC401B601A5012AE0D0
:1015F00030E00E94F209C80FD91FC601B5010E9450
:10160000DF129B01AC01C801B7010E94DB117A9483
:101610007720D1F6CE01DF91CF911F910F91FF90EE
:10162000EF90DF90CF90BF90AF909F908F907F9082
:1016300008950E94350A0895EF92FF920F931F9329
:101640007C010E9463098C01C7010E944309080FB5
:10165000191FC8011F910F91FF90EF900895CF932C
:10166000DF930E94F90C84EE91E00E94030E0E9429
:101670003906C0E0D0E00E94BB052097E1F30E944C
:101680000000F9CF08952091C1013091C2018091ED
:10169000C3019091C401281B390B2F733070C9010D
:1016A00008952091C1013091C2018091C3019091B0
:1016B000C4012817390719F42FEF3FEF09C0E09153
:1016C000C301F091C401EF57FE4F8081282F30E015
:1016D000C90108952091C1013091C2018091C301D7
:1016E0009091C4012817390719F42FEF3FEF13C069
:1016F000E091C301F091C401EF57FE4F208180912A
:10170000C3019091C40101968F7390709093C401AE
:101710008093C30130E0C90108951092C80110926E
:10172000C70188EE93E0A0E0B0E08093C9019093F8
:10173000CA01A093CB01B093CC018FE191E09093CB
:10174000C6018093C50108950F931F93DF93CF9334
:101750000F92CDB7DEB78C01698380911801882381
:1017600069F083E0BE016F5F7F4F41E050E00E946F
:10177000230E1816190614F49C0107C081E090E0AE
:10178000F8019383828320E030E0C9010F90CF916C
:10179000DF911F910F91089583E00E94F80D089545
:1017A000CF93DF9312C082E00E94830D2FEF8F3F13
:1017B0009207C9F0E091C101F091C201EF57FE4FCD
:1017C0008083D093C201C093C101C091C101D09167
:1017D000C2012196CF73D0708091C3019091C40152
:1017E000C817D90701F7DF91CF910895FC018081D7
:1017F0008E5F808380E86CE371E042E450E00E94F9
:101800009C0D0895FC0181819081913A59F48132B7
:1018100009F04CC080E061E171E047E050E00E94D7
:101820009C0D42C0913209F041C0803239F481E10F
:1018300091E067E070E00E94E00D36C0823209F06E
:1018400035C082818093180180911101909112011D
:10185000A0911301B0911401805B9440A040B0406E
:1018600019F58091180180FD12C087E797E79093E2
:101870000108809300082BE088E190E00FB6F8940F
:10188000A895809360000FBE209360000DC088E192
:101890000FB6F89480936000109260000FBEA89578
:1018A000109201081092000881E0089580E00895E8
:1018B0001F920F920FB60F9211242F933F938F9385
:1018C0009F93AF93BF938091D7019091D801A0913E
:1018D000D901B091DA013091DB010196A11DB11D52
:1018E000232F2D5F2D3720F02D570196A11DB11DFF
:1018F0002093DB018093D7019093D801A093D90165
:10190000B093DA018091D3019091D401A091D501D7
:10191000B091D6010196A11DB11D8093D301909382
:10192000D401A093D501B093D601BF91AF919F91FF
:101930008F913F912F910F900FBE0F901F90189590
:101940009B01AC017FB7F8948091D3019091D401B1
:10195000A091D501B091D60166B5A89B05C06F3F97
:1019600019F00196A11DB11D7FBFBA2FA92F982F85
:101970008827860F911DA11DB11D62E0880F991F58
:10198000AA1FBB1F6A95D1F7BC012DC0FFB7F89401
:101990008091D3019091D401A091D501B091D6014D
:1019A000E6B5A89B05C0EF3F19F00196A11DB11D3A
:1019B000FFBFBA2FA92F982F88278E0F911DA11D29
:1019C000B11DE2E0880F991FAA1FBB1FEA95D1F74E
:1019D000861B970B885E9340C8F2215030404040F0
:1019E000504068517C4F211531054105510571F674
:1019F0000895789484B5826084BD84B5816084BD87
:101A000085B5826085BD85B5816085BDEEE6F0E077
:101A1000808181608083E1E8F0E0108280818260D3
:101A20008083808181608083E0E8F0E08081816054
:101A30008083E1E9F0E08081826080838081816041
:101A40008083E0E9F0E0808181608083E1ECF0E078
:101A500080818460808380818260808380818160D6
:101A60008083E3ECF0E0808181608083E0ECF0E053
:101A7000808182608083E2ECF0E0808181608083FD
:101A8000EAE7F0E0808184608083808182608083E7
:101A90008081816080838081806880830895282F81
:101AA0008091DE018823C1F057FF1AC015C0289A23
:101AB0009093DD018091F1008193E217F307B9F76C
:101AC0004115510539F08091F200882319F48BE615
:101AD0008093E800AFBF02C04FEF5FEFCA010895E7
:101AE000AFB7F89427702093E9008091F200282F77
:101AF00030E0241735070CF4A901FB019B01240FEA
:101B0000311D94E6DACFDF93CF930F92CDB7DEB7D6
:101B1000BE016F5F7F4F41E050E00E944F0D019783
:101B200019F02FEF3FEF03C08981282F30E0C90162
:101B30000F90CF91DF910895FF920F931F93F82E8E
:101B4000142F052F4091E1015091E201212F302FF8
:101B5000C901DC01FB016EEF29C0F7FE02C09491C0
:101B600001C090812091DF013091E00124173507F9
:101B7000ACF48091E8008570E1F38091E80082FF89
:101B800003C02FEF3FEF17C09093F100C9010196FA
:101B90008F739070892B11F46093E8002F5F3F4F93
:101BA0003093E0012093DF01119731961097A9F649
:101BB000812F902F9C01C9011F910F91FF900895D3
:101BC0009C018091E80082FFFCCFF901260F311DB6
:101BD00003C08091F1008193E217F307D1F7289AAF
:101BE00084E68093DD018BEF8093E800CB010895BC
:101BF0008093E9008091F200882319F08AE38093B2
:101C0000E800089508951092DE0181E08093D700E6
:101C100080EA8093D80082E189BD09B400FEFDCF3F
:101C200061E070E080E090E00E94A00C80E9809389
:101C3000D8008CE08093E2001092E000559A209A40
:101C40005D98289808955F926F927F928F929F92ED
:101C5000AF92BF92CF92DF92EF92FF920F931F93BA
:101C6000CF93DF93E82E842E752E8091DE0188239A
:101C700071F18B01242F352FC901EC017AEFF72E7A
:101C800067E0962E9E2050E4552E8E2D90E040E287
:101C9000A42EB12CA822B9223AE3632E20E4C22E4E
:101CA000D12CC822D92258C09FB7F8949092E9004D
:101CB0008091E80085FD02C020E004C08091F20020
:101CC000252D281B9FBF222361F4FA9419F42FEFCE
:101CD0003FEF4DC061E070E080E090E00E94A00C1A
:101CE0003BC0822F90E0C817D9070CF42C2FC21BE1
:101CF000D1094FB7F8949092E900A114B10421F4EE
:101D000006C01092F10021502223D9F719C0E7FC38
:101D100003C0F801922F10C0C801322F06C0FC0189
:101D20000196E491E093F10031503323C1F706C0EE
:101D300081918093F10091509923D1F7020F111DE9
:101D40008091E80085FF05C0209729F4C114D104D3
:101D500011F06092E8004FBF209709F0A5CF5D9A7F
:101D600084E68093DC01282D372DC9019C01C9012F
:101D7000DF91CF911F910F91FF90EF90DF90CF9067
:101D8000BF90AF909F908F907F906F905F900895DD
:101D90001F920F920FB60F9211242F933F934F93E0
:101DA0005F936F937F938F939F93AF93BF93EF93C3
:101DB000FF938091E1001092E100982F83FF0FC004
:101DC0001092E90081E08093EB001092EC0082E336
:101DD0008093ED001092DE0188E08093F00092FF86
:101DE00034C083E08093E9008091F200882319F0E9
:101DF0008AE38093E8008FB7F89492E09093E9002B
:101E00009091F2008FBF992321F085EC91E00E9420
:101E1000D00B8091DC01882351F08091DC0181504E
:101E20008093DC018091DC01882309F45D98809126
:101E3000DD01882351F08091DD0181508093DD0127
:101E40008091DD01882309F42898FF91EF91BF91DB
:101E5000AF919F918F917F916F915F914F913F9142
:101E60002F910F900FBE0F901F9018950F931F93F7
:101E7000DF93CF930F92CDB7DEB719828E010F5F3C
:101E80001F4FC8010E94F60BC8010E94CF11898123
:101E900090E00F90CF91DF911F910F9108951F92C5
:101EA0000F920FB60F921124EF92FF921F932F9370
:101EB0003F934F935F936F937F938F939F93AF93D2
:101EC000BF93EF93FF93DF93CF93CDB7DEB76197C7
:101ED000DEBFCDBF1092E9008091E80083FF0FC103
:101EE000FE0131969E01275F3F4F03C08091F100B4
:101EF0008193E217F307D1F7289A84E68093DD01F6
:101F000082EF8093E800998197FF05C08091E800F7
:101F100080FFFCCF03C08EEF8093E800292F30E0D4
:101F2000C90180769070892B09F0C2C08A8188230C
:101F300029F41092F1001092F100D6C0813009F41A
:101F4000D3C0833009F4D0C0853049F48091E800D3
:101F500080FFFCCF8B8180688093E300C5C0863012
:101F600009F07CC01C81EF80F8841230C1F510921A
:101F7000E9001092E0011092DF011092E20110924C
:101F8000E1010E94360F99E0FE013996DF01292F09
:101F90001D922A95E9F799871A8791E09E8790E824
:101FA000988B9AEF998B2091DF013091E001275FA8
:101FB0003F4F3C872B878D871092E9001092E001FC
:101FC0001092DF01F092E201E092E10180E0BF01B6
:101FD00049E050E00E949C0D0E94360F85C010928F
:101FE000E9001092E0011092DF01F092E201E0922C
:101FF000E101123241F482E290E00E94C711892B84
:1020000009F476C071C0113079F488E0E816F10463
:1020100019F481E08093E3018091E301882309F0C2
:102020006BC0ECEBF1E013C0133009F061C08B81A1
:10203000882319F4EEE7F1E00AC0823019F4E2E8EF
:10204000F1E005C0813009F053C0E4EAF1E04491C9
:1020500080E8BF0150E00E949C0D46C0873009F423
:1020600047C0883021F481E08093F1003DC0893081
:10207000D9F523703070232BD9F5E1EEF1E091E032
:1020800031E026E39093E9003093EB008491809354
:10209000EC002093ED009F5F3196953099F78EE725
:1020A0008093EA001092EA008B818093DE011CC0CD
:1020B0008F8198851092E9001092E0011092DF0163
:1020C0009093E2018093E1018D81882329F4CE0170
:1020D00001960E94020C06C0823051F4CE01019696
:1020E0000E949810882321F08EEF8093E80007C0AB
:1020F00081E28093EB0003C0EEECF1E0A8CF6196A3
:10210000DEBFCDBFCF91DF91FF91EF91BF91AF9136
:102110009F918F917F916F915F914F913F912F91FF
:102120001F91FF90EF900F900FBE0F901F9018958A
:10213000FC0191818081813A31F4913089F080E015
:10214000933089F40DC0813269F49B3021F482818F
:102150008093190105C09A3029F4828180931A0175
:1021600081E0089580E00895EF92FF920F931F930E
:102170008C01E62EDC01ED91FC910480F581E02DCF
:102180000995F82ED801ED91FC910680F781E02D9C
:10219000C8016E2D09958F2D90E01F910F91FF9032
:1021A000EF9008951092E5011092E9011092E80174
:1021B00081E391E09093E7018093E6010895EF9227
:1021C000FF920F931F93DF93CF930F92CDB7DEB79C
:1021D00089838B017A0184E0BE016F5F7F4F41E00C
:1021E00050E00E94230E84E4B801A7010E94230E50
:1021F0000F90CF91DF911F910F91FF90EF90089575
:1022000082E048E050E00E94DF100895FC01168251
:102210001782108611861286138614823496BF01A7
:102220000E9400110895DC01683810F0685829C038
:10223000E62FF0E067FF13C0E058F04081E090E047
:1022400002C0880F991FEA95E2F7809514962C91A9
:102250001497282314962C93149760E012C0ED591C
:10226000FD4F6491662319F420E030E01DC067FF44
:1022700008C014968C9114978D7F14968C931497A4
:102280006F77FD0190E0662321F08681861709F4BF
:1022900016829F5F31969630B1F7CD011496BD013D
:1022A0000E94001121E030E0C9010895CF93DF932F
:1022B000DC01683810F0685825C0E62FF0E067FFB1
:1022C00012C0E058F04081E090E002C0880F991FF2
:1022D000EA95E2F714962C911497282B14962C93D8
:1022E000149760E00FC0ED59FD4F64916623D9F15A
:1022F00067FF08C014968C911497826014968C9393
:1023000014976F7716968C9116978617A9F11796E2
:102310008C911797861781F118968C9118978617CC
:1023200059F119968C911997861731F11A968C915B
:102330001A97861709F11B968C911B978617E1F067
:10234000ED01E0E0F0E09E2F8E81882321F4EA0F7A
:10235000FB1F668306C09F5F31962196E630F1052C
:1023600091F7963049F481E090E013969C938E9318
:10237000129720E030E007C0CD011496BD010E9405
:10238000001121E030E0C901DF91CF91089580E88C
:1023900065EE71E045E650E00E949C0D0895FC0159
:1023A00080818F5F808380E86AE472E049E150E0D9
:1023B0000E949C0D08955058BB27AA270ED075C1C6
:1023C00066D130F06BD120F031F49F3F11F41EF450
:1023D0005BC10EF4E095E7FB51C1E92F77D180F3A3
:1023E000BA17620773078407950718F071F49EF512
:1023F0008FC10EF4E0950B2EBA2FA02D0B01B90161
:1024000090010C01CA01A0011124FF27591B99F06A
:10241000593F50F4503E68F11A16F040A22F232F76
:10242000342F4427585FF3CF469537952795A795C6
:10243000F0405395C9F77EF41F16BA0B620B730B6D
:10244000840BBAF09150A1F0FF0FBB1F661F771FDE
:10245000881FC2F70EC0BA0F621F731F841F48F493
:10246000879577956795B795F7959E3F08F0B3CF19
:102470009395880F08F09927EE0F97958795089503
:10248000D9D008F481E008950CD00FC107D140F0F5
:10249000FED030F021F45F3F19F0F0C0511139C186
:1024A000F3C014D198F39923C9F35523B1F3951BC5
:1024B000550BBB27AA2762177307840738F09F5F65
:1024C0005F4F220F331F441FAA1FA9F333D00E2ED4
:1024D0003AF0E0E830D091505040E695001CCAF741
:1024E00029D0FE2F27D0660F771F881FBB1F261706
:1024F00037074807AB07B0E809F0BB0B802DBF01D9
:10250000FF2793585F4F2AF09E3F510568F0B6C0F1
:1025100000C15F3FECF3983EDCF3869577956795B5
:10252000B795F7959F5FC9F7880F911D9695879589
:1025300097F90895E1E0660F771F881FBB1F6217A8
:1025400073078407BA0720F0621B730B840BBA0B66
:10255000EE1F88F7E095089504D06894B111D9C0B2
:102560000895BCD088F09F5790F0B92F9927B751A4
:10257000A0F0D1F0660F771F881F991F1AF0BA9547
:10258000C9F712C0B13081F0C3D0B1E00895C0C026
:10259000672F782F8827B85F39F0B93FCCF386953D
:1025A00077956795B395D9F73EF49095809570959A
:1025B00061957F4F8F4F9F4F0895E89409C097FB17
:1025C0003EF490958095709561957F4F8F4F9F4F0A
:1025D0009923A9F0F92F96E9BB279395F69587954E
:1025E00077956795B795F111F8CFFAF4BB0F11F411
:1025F00060FF1BC06F5F7F4F8F4F9F4F16C08823B8
:1026000011F096E911C0772321F09EE8872F762FED
:1026100005C0662371F096E8862F70E060E02AF02E
:102620009A95660F771F881FDAF7880F969587951A
:1026300097F90895990F0008550FAA0BE0E8FEEFEF
:1026400016161706E807F907C0F012161306E40776
:10265000F50798F0621B730B840B950B39F40A266F
:1026600061F0232B242B252B21F408950A2609F44D
:10267000A140A6958FEF811D811D089597F99F6751
:1026800080E870E060E008959FEF80EC08950024FA
:102690000A941616170618060906089500240A94C7
:1026A00012161306140605060895092E0394000C4D
:1026B00011F4882352F0BB0F40F4BF2B11F460FFDC
:1026C00004C06F5F7F4F8F4F9F4F089557FD905805
:1026D000440F551F59F05F3F71F04795880F97FBE6
:1026E000991F61F09F3F79F08795089512161306A0
:1026F0001406551FF2CF4695F1DF08C016161706CF
:102700001806991FF1CF8695710561050894089503
:10271000E894BB2766277727CB0197F908958ADFCE
:1027200008F48FEF08950BD0C0CFB1DF28F0B6DFEB
:1027300018F0952309F0A2CFA7CF1124EACFC6DF66
:10274000A0F3959FD1F3950F50E0551F629FF001C4
:10275000729FBB27F00DB11D639FAA27F00DB11D1D
:10276000AA1F649F6627B00DA11D661F829F2227A6
:10277000B00DA11D621F739FB00DA11D621F839F2D
:10278000A00D611D221F749F3327A00D611D231F03
:10279000849F600D211D822F762F6A2F11249F5751
:1027A00050408AF0E1F088234AF0EE0FFF1FBB1F74
:1027B000661F771F881F91505040A9F79E3F510513
:1027C00070F05CCFA6CF5F3FECF3983EDCF38695CC
:1027D00077956795B795F795E7959F5FC1F7FE2BBE
:1027E000880F911D9695879597F9089523DF880B9B
:1027F000990B0895629FD001739FF001829FE00DB5
:10280000F11D649FE00DF11D929FF00D839FF00D6F
:10281000749FF00D659FF00D9927729FB00DE11D1B
:10282000F91F639FB00DE11DF91FBD01CF011124F8
:102830000895991B79E004C0991F961708F0961B1C
:10284000881F7A95C9F78095089597FB092E07266A
:102850000AD077FD04D02ED006D000201AF470954F
:1028600061957F4F0895F6F7909581959F4F089554
:10287000A1E21A2EAA1BBB1BFD010DC0AA1FBB1F84
:10288000EE1FFF1FA217B307E407F50720F0A21BF6
:10289000B30BE40BF50B661F771F881F991F1A9463
:1028A00069F760957095809590959B01AC01BD018D
:1028B000CF010895AA1BBB1B51E107C0AA1FBB1F74
:1028C000A617B70710F0A61BB70B881F991F5A95BC
:1028D000A9F780959095BC01CD010895EE0FFF1FDB
:1028E0000590F491E02D0994911106C0803219F001
:1028F00089508550D0F708959927882708952F92F9
:102900003F924F925F926F927F928F929F92AF927F
:10291000BF92CF92DF92EF92FF920F931F93CF93CC
:10292000DF93CDB7DEB7CA1BDB0B0FB6F894DEBF63
:102930000FBECDBF09942A88398848885F846E8489
:102940007D848C849B84AA84B984C884DF80EE80D3
:10295000FD800C811B81AA81B981CE0FD11D0FB6DC
:10296000F894DEBF0FBECDBFED010895F894FFCF00
:102970003B006E616E00696E66006F7666002E0029
:102980000100E1000000000000010100000000A4BF
:102990000B1909430B6A0B510BCC0BD00B00000039
:0C29A00000B410190956111311061100A3
:00000001FF
